S00E0000752D626F6F742E73726563C0
S2140000000000022075030000A1020000A10200000B
S214000010A1020000A1020000A1020000A10200004F
S214000020A1020000A1020000A1020000A10200003F
S214000030A1020000A1020000A1020000A10200002F
S214000040A1020000A1020000A1020000A10200001F
S21400029862B6704772B67047684600F001F8FEE727
S2140002A870B5044600F07AFC0546224807F044FF7D
S2140002B80F2D9DBF204B214853F82510A5F110019E
S2140002C888BF1F4807F038FF22681E481E4907F0F7
S2140002D833FF62681D491B4807F02EFF1C4807F0CD
S2140002E82BFFA26817481B4907F026FFE2681A4941
S2140002F8144807F021FF164807F01EFF2269114828
S214000308164907F019FF626915490E4807F014FFE9
S2140003180F4807F011FFA2690A48124907F00CFFB8
S214000328E2690848104907F007FF0948BDE8704029
S21400033807F002BF28170100E8160100CC58010094
S214000348401701004C170100581701005C17010000
S214000358D43801006017010064170100681701000F
S2140003686C170100701701007417010010B500F033
S21400037813FE72B609480A4A0A49121A00F086FAA3
S21400038809480A490A1A002100F012FA084A094BD5
S2140003981A60BDE8104000F057BE00BF00000020FD
S2140003A8B00D00200C5B0100B00D0020303F00208F
S2140003B800F00120B00D00200023CA5CC2540133AF
S2140003C8002AFAD1704700BF002312F0010F10B4BC
S2140003D804D00C78013A047001237CB172B1CC5C6D
S2140003E803F1010CC454013A44B111F80C400CF165
S2140003F8010300F80C40013A002CEFD110BC7047FE
S21400040890F9003010B463B1024612F9014F002C7F
S214000418FBD10023CC5CD4540133002CFAD110BC99
S21400042870470246F5E700BF70B41346002A32D07C
S21400043890F90020002A30D0024612F9014F002C0D
S214000448FBD10C7803F1FF3C0CF00106147014B3D2
S2140004584FF0010C9C4502EB0C051AD04EB111F872
S2140004680C4002F80C40B4B14FF0020C01359C4524
S2140004780FD011F80C600CF10104013502F80C607D
S214000488013504F1010C36B10E5D16551EB19C45BA
S214000498EFD100232B7070BC70470246D1E700BF2F
S2140004A810B40023C25CCC5C0133141BE4B224B93C
S2140004B8002AF7D1104610BC704760B2FBE700BFB1
S2140004C870B41346AAB104780A78A21AD2B2002ADF
S2140004D830D174B15C1E14F0010F944627D04578CD
S2140004E84A782346AA1AD2B2002A23D14FF0010C22
S2140004F8EDB9002070BC704701EB0C0500EB0C044E
S2140005086A7864780CF1010CA21AD2B200EB0C06D9
S21400051801EB0C0572B9002CEBD074786A78013BB5
S214000528A21AD2B232B90CF1010C002CE1D0013B70
S214000538E2D1DEE750B2DDE7037849B25AB28A4222
S21400054808D033B110F8013F4FFA83FC8C45F8D138
S21400055870470020704700BF90F9002003462AB174
S214000568024612F9010F0028FBD1D21A981890F902
S21400057800C049B28C4502F0010215D0013883420A
S21400058810D832B190F900208A420CD00138834244
S21400059808D890F900208A4205D010F901CD8C457C
S2140005A8F4D1704700207047704700BF90F90030BC
S2140005B833B1034613F9012F002AFBD1181A7047E6
S2140005C818467047D9B190F90020C2B14B1E13F0F7
S2140005D8010F02460CD1013243B192F90010013BDB
S2140005E821B112F9011F013B0029F4D1101A7047F6
S2140005F8024612F9011F013B0029ECD1F6E700205C
S214000608704700BF70B403780246C3B10E78B6B11F
S21400061876B200205BB29E4218BF0C4602D109E0B3
S214000628634507D0657801344FFA85FC002DF7D16D
S21400063870BC70470130135C002BEBD1F8E7002044
S214000648F6E700BFF0B40378ABB10E78054677B28C
S214000658284666B15BB29F420ED00A4601E0634563
S2140006680AD0547801324FFA84FC002CF7D115F8DA
S214000678013F002BECD10020F0BC70472DE9F004B8
S214000688002844D0274E0478002C45D00D78002D3D
S21400069845D000274FFA85FA64B2A24518BF0A4625
S2140006A802D124E0A44522D0537801324FFA83FCC5
S2140006B8002BF7D1C0190378002B2DD007464FFA28
S2140006C885FA65B15BB29A4516D00A4601E09C45A4
S2140006D812D0547801324FFA84FC002CF7D117F860
S2140006E8013F002BEDD13360BDE8F00470470137B9
S2140006F8C45D002CD0D1DDE73B46002FF3D097F938
S2140007080020002AEFD0002103F8011BEBE7054E76
S21400071830680028E8D0B6E700203060E4E72F46C7
S214000728C8E700BFB40D002003682DE9F004CBB17C
S2140007381D78ADB10F781E464FFA87FA67B16DB2CD
S214000748AA4513D00A4601E0AC450FD054780132CA
S2140007584FFA84FC002CF7D116F8015F002DEDD176
S214000768002202601846BDE8F00470473246002EA4
S214000778F7D0002102F8011B0260F3E7034608B928
S21400078818467047017879B140780028F8D01A469C
S21400079803E0D07802320028F2D0517091781070B9
S2140007A80029F6D1184670470B461846704700BF12
S2140007B810F0030F30B404462AD101F0FF0343EAD1
S2140007C8032C43EA0C25032A43EA052520D9A2F17F
S2140007D8040C0423BCF1030F0560CCF3800410D985
S2140007E82CB1A2F108040823032C456009D903F1AB
S2140007F8040CC5500CF10403D41A032C40F80C5012
S214000808F5D8043A22F00304231DC41802F00302A4
S214000818AAB1531E03F001050123C9B29A422170FA
S2140008280DD01DB102239A42617008D003F1010C65
S214000838E1540CF101039A4204F80C10F6D130BCCE
S214000848704700BF034610B41046E2B11C7802F1A8
S214000858FF3C012282420C700CEA020413D034B129
S21400086893F801C00222824281F801C00BD09C5C3A
S21400087802F1010C8C5413F80C400CF10102824270
S21400088801F80C40F3D1084610BC704741EA000353
S21400089813F0030F30B404460D4628D1032A26D990
S2140008A80C68A2F1040C0423BCF1030F0460CCF31B
S2140008B8800414D934B14D68A2F108040823032C27
S2140008C845600CD9CC5803F1040CC4500CF1040351
S2140008D851F80C50D41A032C40F80C50F2D8043AAD
S2140008E822F003052B1DCD1802F00302C418CAB166
S2140008F82978531E217003F0010101239A4211D072
S21400090821B1697802239A4261700BD015F803C0AA
S214000918591C04F803C015F801C04B1C9A4204F889
S21400092801C0F3D130BC70478842F0B41FD8E2B19A
S2140009380C78012302F1FF3C934204700CEA03048E
S21400094813D034B191F801C00223934280F801C055
S2140009580BD0CC5C03F1010CC45411F80C400CF11C
S2140009680103934200F80C40F3D1F0BC7047002A0C
S214000978FBD0891811F8013C8418551E04F8013C70
S21400098805F001064FF0FF33002DEED03EB111F80A
S21400099802CC022A6FF0010304F802CCE5D0CD1889
S2140009A815F8017C03F1FF3CE61806F8017C01EB1C
S2140009B80C0515F8017C0CF1FF3304EB0C069D18AA
S2140009C806F8017C002DEAD1CFE700BFF0B4034655
S2140009D89446002A30D005780A78AD1A29D10CF149
S2140009E8FF3616F0010F2A4618D0447848780122B8
S2140009F8201AB4461ED19C18881801329F188E18E3
S214000A080132BCF1010C0CF1FF3C12D0647840783E
S214000A18201A0FD17C787078201A0BD19C18881869
S214000A2801329F188E180132BCF1010C0CF1FF3C04
S214000A38ECD12846F0BC70471046FBE71346CAB10F
S214000A4802788A4219D05A1E12F0010F0DD010F8FB
S214000A5801CF13468C4508D1704790F800C08C45E6
S214000A6809D010F8012F8A4206D00130013B03F165
S214000A78FF33F2D170477047704770472DE9F00E84
S214000A8891F9003083B081463BB10B4613F9012F2C
S214000A98002AFBD1B3EB010A04D1484603B0BDE8EF
S214000AA8F00E704799F90030002B40D04B4613F9EA
S214000AB8010F0028FBD1C9EB030BD34535DB4846AD
S214000AC8BAF1000FEAD00B784FF0000C019319F832
S214000AD80C30019A9A421FD10AF1FF34002314F011
S214000AE8010F52460AD046784D780123AE42224678
S214000AF804D011E07C787578AC420DD1C518CC18B6
S214000B080133C718CE180133013A02F1FF32C5D0B7
S214000B186D786478A542EDD00CF1010CCCEB0B0097
S214000B28824502DC09EB0C00D1E70020B6E79B46BD
S214000B38C3E700BF12F0010FC9B205D090F800C095
S214000B48013A8C450DD00130531E4AB190F800C0CA
S214000B585A1E8C4505D010F8013F8B42F3D17047DA
S214000B681046704710B5044600B910BD90F900301D
S214000B7883B110F9011F0029FBD1001B013007F0D3
S214000B88F5FC014629B10023E25CCA540133002A69
S214000B98FAD110BD0120F2E7002070474EF6005348
S214000BA8CEF200035868C0B2704700BF4EF69053A6
S214000BB8CEF200039860D9601A6170474EF69053DB
S214000BC8002814BF03200020CEF2000358607047A8
S214000BD84EF6905340F23F00CEF200030021C0F2DA
S214000BE8003003229960D96018615A60704700BFC8
S214000BF808B500F0ABF900F061F800F0E9F84246F5
S214000C081068136840F6A6614FF0C842C1601A61C2
S214000C18002008BD012A2DE9F04415461C4637D0A9
S214000C280021102258680AF05FFE022D8246D8BFBF
S214000C381C4F16DC1C4E00251C48216807F07CFA61
S214000C482B46504639463246194DA84710B900205B
S214000C58BDE8F0842168174807F06EFA0020BDE862
S214000C68F08400211022A0680AF03EFE032D0746F5
S214000C78E0D000211022E0680AF036FE042D064671
S214000C880DD02069002110220AF094FE0546D3E70D
S214000C981968094807F050FA0020BDE8F084043DBA
S214000CA8CAE700BF00500020006001000C180100D1
S214000CB8410B002030180100E817010030B44EF24E
S214000CC810034FF6FE74CEF20003C0F2FF04064986
S214000CD85C6000200024002501229860C1E90045D8
S214000CE81A6030BC704700BFB80D00204EF21000E6
S214000CF8CEF200008268034B002000219A60C3E908
S214000D0800017047B80D002008B50420014B98472D
S214000D1808BD00BF6D0B0020134A10B5044604201A
S214000D2890474DF6836CC4F21B3CACFB00218B0C41
S214000D3804FB03F44EF21001CEF200018A689442D6
S214000D480AD902F18073981E041B88688242FCD870
S214000D588B68A342F9D810BD141B8868A04202D934
S214000D688B689A42F9D210BD6D0B00202DE9D04C45
S214000D78154B4EF21004CEF200049F68A268044693
S214000D88BA4284BF07F18077023FBE1AD3E9000152
S214000D9810EB060A41F1000B5F465646C3E90067AA
S214000DA89A600420094B984744F6D351C1F2620171
S214000DB8A1FB00B200235046394692090FF0DEFF29
S214000DC8001BBDE8D08C00BFB80D00206D0B0020BE
S214000DD843F60003C4F2020318681A4640F480314A
S214000DE8196070B5002306E0116811F4003F08D1B9
S214000DF8B3F5A06F05D014685D1C6B1C14F4003F97
S214000E08F2D043F60003C4F202031A6812F4003F55
S214000E1833D0996845F2194421F47C4E2EF0F00C34
S214000E284CF41445C0F240749D605C6018681A461D
S214000E3840F080761E60136843F6000413F0007FC7
S214000E48C4F20204F7D12668052006F00072002ACC
S214000E580CBF022601260CBF0825042500F06AF8F8
S214000E68A368224623F00301A160A0680643A66093
S214000E78906800F00C04A542FAD143F60003C4F2C9
S214000E8802039D68C5F38102012A48D024D2274A66
S214000E9842F20041C0F2F401116043F60003C4F2C6
S214000EA802039D682248C5F3031C50F82C40E14015
S214000EB851609D68CC08C5F3822C50F82C5031FA46
S214000EC805F595609B681461C3F3423C50F82C30D6
S214000ED831FA03F0D06070BD022AD8D15C685A682F
S214000EE847F6400142F2004512F4800F5868C0F2F7
S214000EF87D11C0F2F40518BF0D4604F03F0CB5FB93
S214000F08FCF2C0F388115D6801FB02FCC5F30144DE
S214000F18621C5300054ABCFBF3F11160BDE7034AA7
S214000F2847F64001C0F27D111160B6E7C80D0020F3
S214000F388C180100072828BF072043F6004340F412
S214000F484070C4F202031860704700BF43F60043BF
S214000F58C4F202031A69002A09DA40F2231148F695
S214000F68AB10C4F26751CCF6EF505960586043F6A0
S214000F780043C4F20203196921F0407C2CF00300F8
S214000F8818611A6942F400711961186940F0004244
S214000F981A617047704700BF704700BF704700BFB0
S214000FA8704700BF704700BF704700BF704700BF5C
S214000FB8704700BF704700BF704700BF704700BF4C
S214000FC8704700BF08B5024807F07CF8FEE700BF88
S214000FD8BC1901004046036810B59C69044807F030
S214000FE871F8204603490AF0C9F9002010BD00BF71
S214000FF8E8190100D438010008B50348034907F08A
S2140010089BF8002008BD00BFF019010090190100E8
S21400101870B590B040220B48694606F0D9F94446A8
S21400102800286D462668D8BF4FF4E13004DD6846D0
S21400103800210A220AF058FCA060A368002033604A
S21400104810B070BDF819010038B5374C2268A2F503
S2140010588048A8F12008002120224046FFF7A8FB78
S2140010684546A8F11C002860286800211C22FFF7C6
S2140010789FFB4246D2F804C02C4B2D4D19682068B9
S2140010884CF0010CC2F804C02B682A4A091A1160F1
S2140010981BB908E055F8043F23B198470028F9D053
S2140010A8FFF790FF20684FF48041A0F5804007F0D6
S2140010B89FFD03F073F805461F4807F003F8284617
S2140010C81E490AF05BF907F079FF1D4841460C688F
S2140010D806F0F2F90AF0AAFB606009F08DFA08F04B
S2140010E807F807F081F800F037F8164806F0E4F934
S2140010F828B1002110220AF0F7FB134B186013489A
S21400110806F0DAF9014618B11148802200F052FCC0
S214001118104806F0D7FF4246106800F019FB09F0A1
S21400112897F909F095F9FAE7B00D0020B00D002000
S21400113800000020DC0D0020041A0100D43801004D
S2140011480C1A0100141A010068000020201A010079
S2140011584C3300202C1A0100704700BF002070474F
S21400116870B5A2B0044680222C4902A8FFF78EFB71
S214001178266BE56AE16BA26B636B294800960195BE
S214001188256C06F0D9FFA16A626A236A254806F02C
S214001198D3FF2669E169A26963692348009606F0C9
S2140011A8CBFF2668E168A26863682048009606F0C8
S2140011B8C3FF15F0804F14BF5A227A2215F0005F3D
S2140011C814BF4323632305F0704C15F0805F14BFEB
S2140011D8562676261648BCF1000FB4BF4E216E215F
S2140011E8009606F0A9FF206C22AA00F01F01114CF9
S2140011F802EB8103104A10F0800F14BF21461146F7
S21400120810F0400F18BF22460C4C53F8803C0C4890
S214001218009406F091FF22B070BD00BF341A01009A
S214001228B41A0100FC1A0100201B0100501B010023
S214001238801B0100901B0100E02F0100C032010056
S214001248941B010008B503480AF0D6FC0020024BA0
S214001258984708BDB41B0100210B002010B50446B2
S214001268044806F069FF2046FFF77AFFBDE81040FD
S214001278E8E700BFC81B010010B50446044806F09E
S2140012885BFF2046FFF76CFFBDE81040DAE700BFBB
S214001298DC1B010010B50446044806F04DFF204646
S2140012A8FFF75EFFBDE81040CCE700BFF41B010067
S2140012B810B50446044806F03FFF2046FFF750FFE7
S2140012C8BDE81040BEE700BF001C010010B504468C
S2140012D8044806F031FF2046FFF742FFBDE81040FD
S2140012E8B0E700BF0C1C010010B50446044806F021
S2140012F823FF2046FFF734FFBDE81040A2E700BFF3
S2140013081C1C010010B50446044806F015FF2046CC
S214001318FFF726FFBDE8104094E700BF301C010029
S2140013284FF0FF30704700BF014B1868704700BF8A
S214001338E00D0020104B5A689AB1D8B1136B9A4248
S2140013480FD0012110F0010F0DD0884201F1010CD9
S2140013580ED01B6B0CF101019A4202D01B6B9A420D
S214001368F3D1002070471B6B9A42FAD00221ECE7B3
S2140013781846704710467047E00D00200B4A536821
S21400138883B11268934209D0002001E0934206D048
S2140013981B6B0130002BF9D1002070470020002A73
S2140013A8FAD070474FF0FF30704700BFE00D0020BE
S2140013B810B5054C23682BB11846D96A88472368A8
S2140013C80122DA6110BD00BFE00D002008B5064B0B
S2140013D884461B680A4623B1184661465B6A9847E6
S2140013E808BD4FF0FF3008BDE00D002008B5054BDE
S2140013F81B681BB11846996A884708BD4FF0FF302E
S21400140808BD00BFE00D00200349044B086800280B
S21400141808BF1846704700BFE00D0020501D0100A9
S21400142870B5084D06466C6844B121463046FFF74D
S21400143837F828B1246B6B689C42F6D1002070BD43
S214001448204670BDE00D002070B5154C2368002BB3
S21400145821D005F097FFA168054611B1E0688542DE
S21400146806D0104806F028F8E5600146A06098B156
S21400147825680B4E284600E0B168FFF711F850B112
S2140014882268106B85422060F6D106482946BDE8DA
S214001498704006F031BA70BD01490D68F5E700BF27
S2140014A8E00D0020581D010038B50546144806F022
S2140014B803F818B11349FEF7F3FF90B1124C2368EE
S2140014C87BB17DB91B6B1148236005F0F5FF58B159
S2140014D80D4A1168FEF7E4FF30B921682069884292
S2140014E80AD038BD2361EDE72168084806F004FAFB
S2140014F8216820698842F4D1054B01221A6038BD5C
S214001508601D01006C1D0100E00D0020581D010043
S214001518500E002038B50F4D0446696851B10A468A
S21400152800E01A46136B9942FBD11463002021632E
S214001538E06138BD08486C602C6005F0BDFF18B146
S2140015482968FEF7ADFF18B10348296806F0D4F9F4
S2140015586968EBE7E00D0020581D010030B587B03C
S21400156801AC0A460546054920460BF099FA284676
S214001578214606F0C1F907B030BD00BF701D010056
S21400158830B50C4683B0002855D001AD1022294648
S2140015980AF0AAF9019B207093F90020002A48D186
S2140015A8621C002B4AD01846294610220AF09CF9DD
S2140015B8019B607093F90000002838D1A21C002B0C
S2140015C83FD01846102229460AF08EF9019BA070D3
S2140015D893F90020002A28D1E21C002B34D01846A4
S2140015E8294610220AF080F9019BE07093F9000062
S2140015F8C8B9221D002B2AD01846102229460AF000
S21400160873F9019B207193F9002052B9621D002BD3
S21400161820D01846294610220AF066F9607103B0F1
S21400162830BD0133F2E70133E3E70133D4E7013392
S214001638C4E70133B4E70A4602F8010B0023137027
S214001648A21C00211170E21C00231370221D002129
S2140016581170621D00231370E1E700BF10B50C4639
S21400166805F02AFF2146FFF78BFF237813F0010FBA
S21400167801D0002010BD607894F802C0E27840EAF5
S2140016880C010B432179134362790B431A430CBFB1
S2140016980020012010BD00BF30B50246084B09489F
S2140016A889B0002A18BF03460D46684619460BF04F
S2140016B8F7F9684629466C46FFF7D0FF09B030BDF3
S2140016C8741D01007C1D01002DE9F0441E4E82B0F9
S2140016D833688246002B31D0746800256F4604E0D4
S2140016E8246B7068844210D0013569462846FFF797
S2140016F8D3FF0028F4D004F1100006226946FFF74D
S214001708C5F8246B70688442EED10F490C682346EE
S21400171818461A6A5146904700284FF0000009DA22
S214001728FFF7C2FE33689C42F2D14FF0FF3002B09A
S214001738BDE8F08433680221D961F8E7034806F06B
S214001748C1FC4FF0FF30F2E7E00D0020881D0100D5
S2140017582DE9F04E564F002382B004463B604020E9
S2140017687B6008F017FB204609F06EFC0028C0F2E4
S2140017788F807C68002C00F092804E4805F09CFE16
S2140017888146412008F006FB21464B4806F0D4FC6B
S21400179800256E46DFF818B149462046B9F1000F15
S2140017A802D0FEF77DFE00B328466946FFF774FFB1
S2140017B8684642490622FFF709F9013528BB246B1B
S2140017C879683F488C4232D006F07CFC21463A487D
S2140017D806F0B2FCDFF8D8B049462046B9F1000F4B
S2140017E8E2D0FEF75DFE0028DED136483C6006F003
S2140017F869FC28466946FFF74FFF68462F490622C8
S214001808FFF7E4F801350028D9D004F1100A2B496F
S21400181806225046FFF7DAF8E8B969460622504627
S214001828FFF734F8246B796825488C42CCD1DBF86E
S2140018380010002928D0244805F03EFEF8B1DBF851
S2140018480010FEF72DFED0B90A2006F031FC284617
S21400185802B0BDE8F08E062269465046FFF7B6F895
S2140018680028DAD02146194806F066FC5146184882
S21400187806F062FC1748694606F05EFCCDE7396854
S214001888114806F039F8DFE70F4806F035F8DBE7C9
S2140018982046FFF745FD7C68002C7FF46EAF0E48A7
S2140018A806F010FC6FF03F0008F074FA2546CEE705
S2140018B8E00D00209C1D01006C480100481D010039
S2140018C8A81D0100AC1D0100581D0100B81D01002F
S2140018D8E41D0100041E0100881D0100014B0222C0
S2140018E81A607047F40D0020704700BF014B58601F
S2140018F8704700BFF40D0020002910B42DDD012329
S2140019084A1E8B4202EA0304028812D02CB1022334
S21400191830F803C08B4262440BD003F1010C30F858
S214001928133030F81C40D2180CF1010312198B4200
S214001938F3D191B201EB124C1FFA8CF303EB1C4067
S2140019484FF6FE71421CC0F2000102EA0100D0F117
S214001958010038BF002010BC70470120FBE700BF1D
S214001968002910B423DD01234A1E8B4202EA030431
S214001978028812D02CB1022330F803C08B4262448E
S2140019880BD003F1010C30F8133030F81C40D21895
S2140019980CF1010312198B42F3D11FFA82FC0CEBEF
S2140019A8124290B200EB124188B210BC7047002079
S2140019B8FBE700BF10B491F90030222B2ED0013A75
S2140019C8002A12DD0B7883B1222B0ED002F1FF3CE1
S2140019D81CF0010F1BD0BCF1000200F8013B04DD2F
S2140019E84B7813B10131222B11D10021017010BCA4
S2140019F870474B78611C002BF7D0222BF5D000F8E7
S214001A08013B6378013A002BEFD0222BEDD0013A48
S214001A184C1C002A00F8013BEBDCE6E70131013AF2
S214001A28CDE700BF08B520B101783039CBB2092B15
S214001A3802D94FF60F7008BD0A22002109F054FF9C
S214001A4882B2130243EA122080B208BD10B505F030
S214001A5833FDBDE81040E5E7094A10884FF6FF72E7
S214001A68010A41EA00239BB2934207D01805030DEA
S214001A7840F6FF7C634501D0122070470E20704761
S214001A8830000020020A42EA002C1FFA8CF24FF6B9
S214001A98FF739A4209D040F6FF70824205D01305BC
S214001AA8084604491A0D0AF0FBBF08460249FEF725
S214001AB883BC00BF341E01002C1E010030B5020690
S214001AC842EA106500F47F4345EA032400F47F00E9
S214001AD844EA102283B0C2F3072502F0FF04C2F3DB
S214001AE807430846120E0349009501940AF0D8FFEA
S214001AF803B030BD381E01000422FEF7C7BE00BF83
S214001B0870B51B4E4FF6FF7334881646220A42EA13
S214001B180425ADB29D4204461BD00622FEF7B6FE4B
S214001B282D050622A01D1349FEF7B0FE2A0D15F551
S214001B38801F16D0B6B22D0F330A45EA022543EAAF
S214001B4806264FF0810C2682E581A4F80CC01220E8
S214001B5870BD0622FEF79AFEA01D06490622FEF76D
S214001B6895FEB0B2010A41EA0026A6810E2070BD95
S214001B7830000020FC0D0020FFF728BC2DE9F04EB1
S214001B88934D0D2984B004462861696133DD914E72
S214001B988389728830884FEA122C070A1E0A47EA99
S214001BA800204CEA022C46EA032640F6FF724FF65F
S214001BB8FF7380B21FFA8CFCB6B240F2E9579C4518
S214001BC808BF9446984214BF03461346BE4215DD26
S214001BD8B6F5014F4AD00E3904F10E071B051B0D4A
S214001BE840F6FF70834217D0824204BF4FEA0C5279
S214001BF8120D934210D004B0BDE8F08EA08A1B05E3
S214001C08060A46EA00271B0D40F6FF70163983427F
S214001C18BEB204F11607E7D140F6060C66453AD080
S214001C2848F23502964211D0B6F5006FE3D11B296B
S214001C38E1D97888020A42EA002C1FFA8CF28A4216
S214001C4840F3D680644806F077FAD4E71B2940F3B9
S214001C58B980F888020A42EA002C0FFA8CFEBEF118
S214001C68040F7DD05D4806F02DFAC4E71129C2DDC1
S214001C780005000D9042BED0E789208A3E0A46EA53
S214001C880722060A46EA00271205BEB2120D1239C6
S214001C9804F11207A2E71B2940F394803B881A0A2E
S214001CA842EA032001B20129A5D17888030A43EA4B
S214001CB800210FFA81FCBCF5006F9CD197F804A0B0
S214001CC8BAF1060F97D17A79042A94D1A969DFF870
S214001CD8009100298FD007F1180103AB019118462F
S214001CE801990093FEF7D2FDD9F81800039A07F178
S214001CF8080B9042009B7FF47EAFF888020A42EAFF
S214001D08002E1FFA8EF2012A00F0D880022A7FF4ED
S214001D1872AFE9692E4C00293FF46DAF206A00289F
S214001D283FF469AF042218460BF10601FEF7AEFD34
S214001D38626A039B9A427FF45EAF59460622206A7F
S214001D48FEF7A4FD216A0622A06AFEF79FFDE16A57
S214001D58A06AFFF73BFB00212162E161E1624AE7E6
S214001D683888020A42EA00210BB2012B7FF47AAFC8
S214001D787B88190A41EA032C0FFA8CFEBEF5006F21
S214001D887FF470AFB88840F2064290427FF46AAF9C
S214001D98134807F11801FFF7AFFE2B6B07F108048D
S214001DA823B907F10E010F48FFF7A6FE21460622C3
S214001DB80D48FEF76BFD00206C6801460246034698
S214001DC8A04718E709481C2206F0B6F913E700BF33
S214001DD8F40D002030000020701E0100581E01007F
S214001DE80C0E0020240E0020280E0020441E0100A1
S214001DF83B7803F0F00140297FF4FDAE03F00F03B3
S214001E08052B3FF7F8AE38460A21FFF775FD002880
S214001E183CD0042203A807F11001FEF737FDAB6992
S214001E28039A6BB1B3EB020E18BF4FF0010EB2F176
S214001E38FF3F0CBF00200EF0010000287FF4DBAE49
S214001E48F888020A42EA002399048A0C002A7FF4DA
S214001E58D2AE7B7A012B1DD0112B7FF4CCAE3B8BF8
S214001E68B7F816E0BA8A190A41EA0324100A4FEAB4
S214001E781E2C4CEA0E2140EA0222A3B207F11C00EF
S214001E886C6889B292B2083BA047B4E61F4806F0D1
S214001E9819F9B0E697F814C007F11403BCF1050F5A
S214001EA87FF4A9AE93F801E0BEF1010F7FF4A3AE6C
S214001EB807F11801164806F03FF99CE63246A11DC0
S214001EC82046FFF71DFE4FF4007CA7F806C05246D2
S214001ED8064607F10E05594607F11200FEF7D6FC2E
S214001EE801982946FFF708FE524609F108015846A8
S214001EF8FEF7CCFC284609F11801FFF7FDFD204641
S214001F0806F11C01FFF762FA75E600BF841E0100A1
S214001F18941E01002DE9F044294D82B0EE6B294944
S214001F2840F606023046FFF7EBFD4FF48072341891
S214001F38062332524FF0080C4FF0040A4FF480760E
S214001F4804F108071A462371A4F802C0E68005F1D2
S214001F58080184F805A03846FEF798FCA96902AE81
S214001F6846F8041D5246314604F10E00FEF78EFC74
S214001F780023E375A374E37423756375A375EB698F
S214001F88A8692A6C83EA0001114201D06B6C83B100
S214001F986B62314607F1100004220193FEF776FCC7
S214001FA8E86BC0F11C010919FFF710FA02B0BDE88A
S214001FB8F084054806F086F8EB696B62E9E700BF2F
S214001FC8F40D002034000020B41E010038B5044685
S214001FD810B9054B986438BD034D0020A964FEF778
S214001FE8C5FE2C65E86438BDF40D002038B52548D4
S214001FF805F062FA044618B12349FEF751FAE8B923
S214002008224D6B6D5C1C6C65FFF7D2F9AA6D1F4CF0
S214002018D2F1010038BF0020FFF746FA41460868AB
S214002028FFF752FBE86D30B1236E0020E065DBB9A0
S2140020380422226038BD0223236038BD2046144996
S214002048FEF72EFA28B9114DFFF7B2F904232B60D4
S21400205838BD20460F49FEF723FA68B901200B4D14
S2140020686B6D9842CED8EFE70B4942F21070FFF737
S214002078ADFF0A49616038BD002120460A4609F0CE
S21400208833FCECE7E01E0100EC1E0100F40D002016
S2140020986C1D0100F01E0100E5180000F118000094
S2140020A810B50F4CE36903B910BD0020FEF75EFEBD
S2140020B8636E41F28831C21A8A42F5D9A16E4A1C6B
S2140020C8042AA26603DC6066BDE8104022E70548DD
S2140020D805F0F8FF0020A066BDE8104086E700BFC0
S2140020E8F40D0020F81E01002DE9F04482B0089F88
S2140020F8019117F0010F044615469A4603D007F1DA
S2140021081C030022C25400263349452323706670F8
S214002118CB6EBFB207F11C0290B29AB24FEA122CED
S2140021284FEA102E4EEA002001334CEA022ECB6608
S214002138A4F804E04FF0FF334FF0400E112223724C
S214002148608062721831A4F806E00422668104F101
S2140021580C000837FEF79AFB1FFA8AFA01A9042230
S214002168ADB2BFB204F11000FEF790FB4FEA1A2C8E
S214002178280A3B0A4CEA0A2A40EA052543EA0727C2
S214002188A4F814A0E58227836683A21C20886388A7
S21400219851880232C318508802325B1851880232BE
S2140021A81B18508802325B18518802321B18508858
S2140021B802325B1851881B1892885B18D31898B29D
S2140021C800EB134C1FFA8CF202EB1C41C8436081EB
S2140021D802B0BDE8F08400BFF40D00202DE9F04EF3
S2140021E884B0934699460C9D0E46002928D1344F54
S2140021F8344C384604F170010622FEF7E7FB4FF030
S214002208FF36844600282AD0D4F83CA039464FF436
S21400221800625046FFF774FC0AEB00073846314662
S2140022285A464B460095FFF75FFFE06B05F11C0327
S2140022383F1AD919FFF7CAF8002004B0BDE8F08E97
S2140022481F4F204CB1F1FF3F18BF0746384604F130
S21400225870010622FEF7BAFB84460028D4D1D4F8CB
S21400226828A039464FF400625046CDF80CC0E66107
S2140022782762FFF745FC0AEB00074B46314638460F
S2140022885A460095FFF730FFA26AE06BB91A1C3170
S21400229809182A4607F11C00FEF7F8FAA36ADDF8C3
S2140022A80CC0FF1A1C3560460126ED19E562A666C5
S2140022B8FEF75CFD6066FFF72DFE3046BDE700BF03
S2140022C834000020F40D00202DE9F04E9449954C7A
S2140022D801F55C6504F1970727F01F020F35002308
S2140022E802F5C06902F5C05C02F5406A02F5905E28
S2140022F825F01F0746460125C1F8A09D88B0C1F8FD
S214002308A4ADC1F8A8EDC1F8ACCDE362A365236619
S2140023182362E3616362E2633668A76265658146A5
S214002328FFF746F8FFF790F83046FFF7CDF9002894
S214002338C0F2F18005FA09F240F2131BC0F2000B56
S21400234802EA0B00784FAA46009225468346FEF717
S214002358EBFF062200F110017448FEF797FA414693
S2140023680E68C4F800A0019605F00CF8D7F8D83225
S2140023780646984224D001980422011D6C48FEF7B0
S21400238885FA6C4805F098F809F050FA68646A48C7
S21400239805F092F809F04AFA2864684805F08CF8BF
S2140023A809F044FA28636648FFF750FB65494880F9
S2140023B86548FFF74BFB5C4B624AC3F8D86210804F
S2140023C8B9F1090F2CD9B9F1010FC4F860A059D09A
S2140023D851D3B9F1030F01D100F0F4F90021C7F881
S2140023E8DC12FFF703F805F04DFE0646002840F01D
S2140023F88A80FFF755FEA26C304632B1FEF7B6FC6F
S214002408EA6C2B6D811A994251D82368032B46D063
S214002418042B2BD0022BE4D1424EC6F858A096E7E0
S214002428BBF1000F13D0414848490622FEF7CEFA02
S2140024380028C8D1FEF7A2FFB0F1FF3F29D0002838
S21400244839D1434805F03EFEFFF7D0FDC9E7009AAC
S21400245812F4027FB7D0236B002B33D0A96900296A
S214002468E1D13C4805F02EFEFEF7A2FF4FF0FF3004
S21400247808B0BDE8F08E384800260660AE6100F069
S2140024884BFCABE7354A0023AB61136000F07AF8E3
S214002498A4E7334805F016FEFEF78AFFE6E7D7F806
S2140024A8DC12A9B9FEF784FFD7F8DC02E0E7A86CCF
S2140024B8AE648047A9E701462A4805F03DFEFFF7C7
S2140024C895FD8EE7284805F0FDFDFEF771FFCDE780
S2140024D80A46264805F030FE134903ACD1F8DC223C
S2140024E8204623490AF0DCFA2146224805F004FA79
S2140024F8214B1F491A6820460AF0D2FA21461F487F
S21400250805F0FAF9CEE7FEF753FF1D4805F0DAFDA9
S2140025184FF0FF30ACE7FEF74BFF4FF0FF30A7E772
S214002528EC1E0020F40D0020E42F0020FC0D0020F7
S2140025380C0E0020241F0100301F0100381F010068
S214002548441F0100300000204C1F0100241E01001B
S214002558B41F0100741F010084340020CC3300200F
S214002568941F0100D41F0100541F0100FC1F010026
S21400257820200100242001006800002030200100EF
S214002588F41F01002DE9F047264DDFF8B4902E68B9
S2140025982548741C21462C6005F0CEFDD9F800604D
S2140025A8224948F235023046FFF7AAFA204F4FF480
S2140025B8807C341826F800C006254FF0040A4FF031
S2140025C808024FF440706280E08039462A4625713A
S2140025D884F805A004F10800FEF758F95246154994
S2140025E804F10E00FEF752F92A46394604F11200A5
S2140025F8FEF74CF94FF0FF33E37623766376A3763F
S214002608D9F80000C0F11C010919FFF7B5FA41F224
S21400261888300949FFF7DAFC0848BDE8F047FFF7B5
S21400262865B900BFCC3300203C20010034000020F0
S214002638FC0D00200C0E0020792600004D26000018
S214002648300E002010B5084804F036FF18B190F98F
S21400265800306E2B03D0BDE8104000F0B3B8034836
S2140026680322026010BD00BF50200100F40D0020B8
S214002678094810B50368042B07DC41F2883007497F
S214002688FFF7A4FCBDE810407CE7054805F01AFDF6
S214002698BDE81040FFF7AABCCC330020792600001E
S2140026A85C200100F0B53C4883B00768FFF7D4F912
S2140026B83A4C1C3021683D184B1E042B69D8DFE8BD
S2140026C803F034271A0327004FF4A0614FF4007371
S2140026D83952281D6B803249FDF76EFE1725D4F84F
S2140026E89030D4F88810D4F88C202E480095FFF740
S2140026F875FD03B0F0BD4FF4A0624FF4407E3A5229
S2140027082949281DA5F802E0FDF756FE1325E6E739
S214002718B4F884104FF4806C27F800C0080A40EA22
S21400272801239AB26A800425D9E74FF4807EAE1C4E
S21400273827F800E01D493046FDF73EFE1B48FDF72A
S21400274835FF411C76181A4F1A493046FDF734FEF5
S2140027581949B01DFDF730FE386844F6D35CC1F25F
S214002768620CACFB00130E369A09144930460AF080
S21400277897F93046FDF71AFF421CBB88B6180027A3
S21400278830463A460E4900970AF08AF93618751BFD
S214002798A5E70025A3E700BF300E0020D0330020B1
S2140027A8B0200100280E0020A0200100D43300200D
S2140027B83C00002084200100D82001008C20010065
S2140027C890200100F0B56E4883B004F075FE00282E
S2140027D800F0CC8000210A2209F0ECF8694DA880A8
S2140027E8694804F069FE002800F0B38000210A2238
S2140027F809F0E0F8B0F57A7F2860C0F0AF80634F44
S2140028086349644C086897F90060C4F88800002E8D
S2140028187FD1614B61491A6804F19400C2F3074CF2
S214002828C2F30723170ED2B2CDF800C001970AF0FC
S21400283837F904F19401201D8022FDF7C5FD58489C
S214002848211D84F8836005F077FCFEF7DDFD514E08
S214002858514F0146534805F06FFC534806F188016E
S2140028683A4605F069FC5149086818B1504A136899
S214002878002B62D10A204F4E05F01AFC4E494F48ED
S21400288805F05AFC318841B149024D4805F054FC20
S21400289833884C49580208F071FD0A2005F008FCF8
S2140028A8494A4A48116805F047FC494805F00AFCB9
S2140028B8EE6848492868AE60FFF788FB0026464859
S2140028C8FFF714F80123452130462360C4F88C101E
S2140028D8C4F8A460FEF74AFA4AF6AB2CCAF6AA2C45
S2140028E8ACFB0032D10A01EB4102A0EB822C0CF5BE
S2140028F88063314606223948C4F89030C4F88460AC
S214002908FDF756FF4FF40071298203B0BDE8F0408A
S214002918C8E638463A21FDF70FFE064640B3384665
S21400292808F084FF711CC4F888008022201D002649
S214002938FDF74AFD84F8836087E73A68D6F888008A
S21400294803EA020E03409E4594D0254805F0F4FBA2
S21400295890E72868B0F57A7FBFF451AF0146214862
S21400296805F0EAFB4FF47A732B6048E7054D37E726
S2140029783946201D8022FDF727FD84F8836064E72A
S214002988C42001003C000020D42001004C33002065
S214002998240E0020D03300200C0E00201821010041
S2140029A8342101006021010074210100380E002046
S2140029B8340E002048330020D4330020C421010000
S2140029C8D4210100C032010068000020EC2101007B
S2140029D804220100F12900003D2A0000280E0020EC
S2140029E8A4210100E02001000D4A10B50D4CD2F8D4
S2140029F8A400A168431C8B42C2F8A43009DC0A482C
S214002A0805F060FB20680949FFF7E0FABDE81040CA
S214002A1848E6074805F056FBBDE81040FFF7E6BA5B
S214002A28D03300203C00002010220100F1290000CD
S214002A385C2001002DE9F046A04C0546D4F890002D
S214002A4883B0884202D003B0BDE8F0862168012929
S214002A5803D0D4F88C009042F5D1012BF3D92E463A
S214002A6836F8020B9F1E4FEA102C4CEA002080B264
S214002A78052800F0C780062874D00328E3D1012F64
S214002A88E1D96B888D4D180A40EA03239BB2C4F837
S214002A988430002B00F0F0804CF6CD4003F1FF3C6C
S214002AA8CCF6CC40A0FB0CA0C00800EB800ABCEB20
S214002AB84A0F00F0FA8043F2FD3ACCF6A61AAAFBB3
S214002AC803C040F28A2A400A0AFB1030002800F0A9
S214002AD81681012914BF4FF0000C4FF0010C052990
S214002AE814BF61464CF00101002900F0AF800021B8
S214002AF80220012B2060C4F88C20C4F8AC10C4F85F
S214002B08B010C4F8A81040F0F1806D4DC4F8B0308D
S214002B180A236C492868AB60FFF758FAD4F8841083
S214002B28D4F8AC20B5F810C0481E00FB0C24664B41
S214002B38023F1A68B11CA0183A46FDF7A7FE63497B
S214002B483C190868844288BF0C60FFF7ABFD2B8AE7
S214002B589F42BFF478AF5E4805F0B4FA5D4A03209A
S214002B68106070E7C4F88C200522082F226045D92B
S214002B780B3B5949304603F00109FDF791FCDFF895
S214002B8840A10146002867D001257419092F35D9B8
S214002B98B9F1000F1AD050492046FDF781FC0146CE
S214002BA8002861D0013505F1080C013467450DD8B9
S214002BB824E049493046FDF773FC01350146A8B1C3
S214002BC805F1090E741C0135774517D94249204688
S214002BD8FDF766FC661C01460028EAD104F10800E9
S214002BE80A2208F081FEAAF81000E2E704F10900BC
S214002BF80A2208F079FEAAF81000E1E703B0BDE85B
S214002C08F0464FE56B88B11C180A40EA032E1FFAF7
S214002C188EF2324805F090FA6888020A42EA002CDA
S214002C281FFA8CF3591E012908D82D4805F04AFAD0
S214002C38FEF7BEFB274A0421116004E7294805F081
S214002C4841FA03B0BDE8F046FFF7D0B9D4F8B02093
S214002C589A423FF4F8AE58E705F10A000A2208F04F
S214002C6843FEAAF810008FE706F109000A2208F0CA
S214002C783BFEAAF8100095E71148D5F8A810D5F835
S214002C88AC30B0F810C001F1010E03EB0C43190D7F
S214002C98C5F8AC301448C5F8A8E0019205F04CFA1F
S214002CA8D5F884302968019A13E72320019205F0A5
S214002CB8FFF9D5F884302968019A0AE7D03300204E
S214002CC83C000020F129000068000020C0320020E7
S214002CD878220100F40D0020142201008022010051
S214002CE898220100AC2201001C220100194608485F
S214002CF805F022FA03B0BDE8F046FFF777B90548B5
S214002D08019205F0DFF9D5F884302968019AE0E6E3
S214002D1838220100342201002DE9F04E5C4FDFF81E
S214002D2888B13A6886B0541C21463C60594805F07C
S214002D3803FADBF80050002140F2EE522846FDF771
S214002D4837FD4FF4006228465349FEF7D9FE2C1883
S214002D5804F11C0900250621012689F8021089F8C5
S214002D680160267789F8035028460391FDF7FEFF91
S214002D7844F6D35CC1F2620CACFB0013C3F38F12AB
S214002D8806AE100A46F8045D40EA022AA9F808A02A
S214002D983146042204F12800FDF778FD3146042266
S214002DA804F12C000595FDF771FD3146042204F167
S214002DB830000595FDF76AFD3146042204F134001B
S214002DC8DFF8E8A00595FDF761FD039904F13800E2
S214002DD80A465146FDF75AFD04F58476802204F12A
S214002DE888002E49FEF7E6FD731C5A1C63214FF037
S214002DF8FF3653206FF07D0C84F809C184F808115B
S214002E085870967051709AF803009AF802200304D6
S214002E189AF8051043EA02609AF804C0084340EAA4
S214002E280C2179602846FDF7A1FF7B683946C31850
S214002E381A0642EA136C03F47F404CEA002203F4B5
S214002E487F0C42EA1C2041F8040F042204F12000FB
S214002E58FDF71CFDDBF80030432220463146F124FE
S214002E68C3EB090944230094FFF73EF90C4940F6E2
S214002E78B830FFF7ABF8A1440A48FEF737FDDBF891
S214002E8800004946FEF778FE06B0BDE8F08E00BFA3
S214002E9884340020C0220100340000204C33002077
S214002EA8B92E0000ED2E0000300E0020FC0D00208C
S214002EB8094810B50368042B07DC41F28830074937
S214002EC8FFF784F8BDE8104026E7054805F0FAF84D
S214002ED8BDE81040FFF78AB884340020B92E0000F9
S214002EE85C2001002DE9F04E443918BF0121432A21
S214002EF80CBF0A4641F0010282B004461E460AB9D3
S214002F08EB2B02D802B0BDE8F08E03785A1E5FFAA3
S214002F1882FC591F18BF0121BCF1010F94BF002085
S214002F2801F0010008B1062BECD16378012BE9D13A
S214002F38A0780628E6D10DF1040A211D0422504681
S214002F48FDF7A4FCA44B01995A689142DAD104F122
S214002F5810010422A14804F11405FDF797FC504619
S214002F6829460422FDF792FC019F27B129469C4872
S214002F780422FDF78BFC9B4F06223D689A48A91849
S214002F8804F16C07FDF782FC3846FDF70FFB40BBE3
S214002F98964D95F9000018B19548944904F0ACFC94
S214002FA804F1EC0104225046FDF770FC48F2632C4D
S214002FB80199C6F2533C61451AD000200146FFF736
S214002FC805F88C4804F078FA20B190F900C0BCF1F6
S214002FD86E0F02D0FFF7F6FB94E7874A03201060CF
S214002FE890E7824D394628468022FEF7E3FCD0E774
S214002FF804F1F005AE19B542DFD294F8F030FF2B95
S214003008DBD07E4FDFF81492DFF808B243B96C1CA9
S214003018A642D2D92378FF2BCFD02546002BF6D050
S2140030286A78941C2C19A642C7D34FF0000AA7F852
S21400303800A028789246431E272BE9D801A151F80C
S21400304823F000BFB33100001930000089310000BA
S21400305819300000193000001D310000193000003A
S214003068193000001930000019300000193000002F
S214003078ED3000005F310000193000001930000004
S21400308819300000313100001930000019300000F6
S21400309819300000193000001930000019300000FF
S2140030A819300000193000001930000019300000EF
S2140030B819300000193000001930000019300000DF
S2140030C819300000193000001930000019300000CF
S2140030D819300000193000001930000019300000BF
S2140030E895310000464991F90000002890D11F2A22
S2140030F807DD4448444920234FF01F0A05F01CF812
S2140031085246A91C3E48FDF7C1FB3D4A002302F87B
S2140031180A307DE73D480368002B7FF479AFA91C89
S2140031280422FDF7B3FB73E79BF9000000287FF441
S2140031386FAF3F2A07DD3348354940234FF03F0A33
S21400314804F0FAFF5246A91C3248FDF79FFB0022FE
S2140031580BF80A205CE7022A2DD0042A7FF458AF21
S214003168D5F80200030643EA106E00F47F414EEAE3
S214003178012200F47F0342EA132CA7F800C047E7B1
S2140031882548016800297FF443AFC8E799F900107D
S21400319800297FF43DAF1F2A14DCA91C1F48FDF741
S2140031A875FB002309F80A3032E71D480268002A32
S2140031B87FF42EAFB3E76888010A41EA002EA7F825
S2140031C800E025E70F48174920234FF01F0A04F0B0
S2140031D8B3FF5246E1E700BF843400200C0E0020FF
S2140031E8240E0020040E0020280E00204C33002059
S2140031F8201A010050200100F40D0020483300205A
S214003208E8320020D42201000C230100C43200203A
S2140032181823010008330020380E0020C83200208A
S214003228340E002024230100064B1A6832B1D968F0
S214003238884203D35218013A904201D900207047B9
S214003248184670478C34002083885A1E8A4205D058
S21400325800EB81021069D368C01A704700EB83033D
S2140032680168C2689B688818C01A704770B490F8DE
S2140032788C3283B00191002B3DD0002113F0010F52
S21400328801AD90F88DC21C4622D115F801C002F88F
S21400329801C090F88C32012190F88DC218E090F8A1
S2140032A88C6290F88DC2631AF31A93FBFCF60CFB3B
S2140032B8163C15F80C600131BCF1030F94BFB446F8
S2140032C84FF0000C02F803C090F88C3290F88DC2CC
S2140032D8661A9B1B93FBFCF60CFB163C15F80C6059
S2140032E80131BCF1030F94BFB4464FF0000CA14265
S2140032F802F803C0D3D103B070BC704770B590F81D
S2140033088C5282B000EB8106044605FB02F519468E
S2140033186A46F668FFF7AAFF94F88C02AA19431EB5
S214003328072B09D8DFE803F0110D080A0808080477
S214003338DDE90001C2E9000102B070BD009BAB5197
S214003348FAE7BDF80020AA53F6E79DF80010A9553D
S214003358F2E700BF70B5D0F8B022AA2304460D469F
S214003368FFF7CCFFD4F8B422204629465523BDE8FB
S2140033787040C3E770B590F88C5282B000EB8106B7
S214003388044605FB02F519466A46F668FFF76EFF1F
S21400339894F88C02AA19431E072B2AD8DFE803F0F4
S2140033A82117291029292904DDE900010CCA424001
S2140033B84B4052EA030114BF0020012002B070BD42
S2140033C8A9590098884214BF00200120F6E7AB5B95
S2140033D8BDF800E01FFA83FCE64514BF0020012074
S2140033E8ECE7AA5D9DF80010914214BF002001206A
S2140033F8E4E70020E2E700BF70B590F88C5282B090
S21400340800EB8106044605FB02F519466A46F6688F
S214003418FFF72CFF94F88C02AA19431E072B2FD807
S214003428DFE803F0251B2E132E2E2E04D2E900010A
S214003438DDE9002322EA000223EA010352EA030137
S21400344814BF0020012002B070BD0099A85908409A
S214003458814214BF00200120F5E7BDF800E0AB5B11
S2140034680EEA030CE64514BF00200120EBE79DF8A2
S2140034780020A95D11408A4214BF00200120E2E71F
S2140034880020E0E7F0B490F88C32013B072B11D807
S214003498DFE803F01E181012101010040D684E68AE
S2140034A82C0A44EA0664350A1706002634433D43C8
S2140034B8C1E90045F0BC70470B68180A40EA02628A
S2140034C80A60F7E70B88180A40EA02220A80F1E742
S2140034D80A70EFE7002110B50A46F0230446FFF706
S2140034E80DFF002120460A46F023BDE8104005E7F8
S2140034F8014B1860704700BF540000202DE9F04EBD
S2140035084FF42F7505FB01F494B008AE82460021EF
S2140035182D2230460494FDF74BF90499734A4FF070
S21400352800035418022084F88C02A4F8AA32A4F8DF
S214003538AC32A4F8A232C4F80CA0012794F88C3256
S21400354884F88D72E3B92DE340F2555500212A46DA
S21400355898232046FFF7D2FE20460021102251234A
S214003568FFF708FF002840F0978094F88D3294F80B
S2140035788C225900C8B2904284F88D0200F2A880C6
S21400358820465525FFF7A6FF2A4600219823204601
S214003598FFF7B4FE2046002110225123FFF7EAFE6B
S2140035A80028D1D00021112252232046FFF7E2FE40
S2140035B80028C9D00021122259232046FFF7DAFE38
S2140035C80028C1D094F88C02E768002207EB0013A5
S2140035D893F800C0511C06F802C013F800E0033246
S2140035E806F801E013F810E003EB400301F1010CC4
S2140035F81B182D2A06F80CE0EAD194F88D22BDF89F
S214003608383040F25551C4F8B012012A40F2AA21C7
S214003618A4F8AE52C4F8B412A4F8A03200F0BA83E4
S214003628022A02D1052B00F0B8839DF823C09DF826
S21400363824E0099B2E4A4CEA0E21C3F30F23C4F854
S214003648B822A4F89C12A4F8AA329DF83C20069248
S2140036587BB1DA1C00FB02FC043300FB03FE1CF8FB
S21400366807301B02A4F8AC321EF807201343A4F850
S214003678AC32032946D03FD8012943D0022900F0AE
S214003688D2811C4804F058FD002120460A46F02343
S214003698FFF734FE002025E00021112252232046A1
S2140036A8FFF768FE00283FF460AF2046002112228C
S2140036B85923FFF75FFE002884D194F88D3294F8DA
S2140036C88C225900C8B2904284F88D027FF658AF13
S2140036D85000C2B2082A84F88C227FF62FAF034B1C
S2140036E80499585814B0BDE8F08E00BF8C340020FA
S2140036F83423010044230100042900F09481B1F525
S214003708007FBED14FF0F00E0021A4F89EE20A46D4
S214003718F0232046FFF7F2FD00210A4690232046B4
S214003728FFF7ECFD4FF47A7008F0CEF8E56894F8E9
S2140037388C7228780021A4F8A4027E5D0A46F0233D
S2140037482046A4F8A662FFF7D9FDB4F8AE222046B4
S21400375800219823FFF7D2FDB4F8AA22002A00F029
S214003768B18194F88C32571D03FB07F6E26816F809
S21400377802C0B4F8A4220CF008011F2AA4F8A2126A
S21400378800F0A781202A00F05B82012A00F00D8253
S21400379894F88D22B4F8A012B3FBF2F3022907932B
S2140037A800F0FA81069A002A00F0008300255646A3
S2140037B80295A24602990DF1500C881D0CEB800468
S2140037C814F8283C54F82C2C1F0647EA1221080C3B
S2140037D81FFA81FB0CBF4FF0800C4FEA002C7F2DA0
S2140037E80BF1010B00F20281DDF81CE0AF1C0EFBAA
S2140037F80CFC05F50274BAF89C320AEB87005444B0
S214003808C5F17F0E021D271D0EF00101032B466031
S214003818059166440192039700F0EC80B3F5007FAB
S21400382800F0E880012B00F0E5804FF000002071E2
S2140038380127ED19BB4567DD0199039A0C1D7F2DFD
S21400384802EB070900F2D280059B002B45D0BAF898
S2140038589C324E60032B664400F0D880B3F5007F98
S21400386800F0D480012B00F0D18003994FF0000EB1
S21400387881F801E001370135BB4528DC44E0B3F5A3
S214003888007F30D0012B1CBF002289F800202AD0E8
S21400389801370135BB45019536DDBAF89C326660BE
S2140038A80434032B09F10109664400F09280B3F54D
S2140038B8007F00F08E80012B00F08B804FF0000513
S2140038C889F80050019A0137551CBB451CDD0434A5
S2140038D87F2D09F1010900F28980BAF89C3226602A
S2140038E8032B6644CBD12946022201235046CDF845
S2140038F800C0FFF781FD013789F800000135BB4598
S214003908DDF800C00195C8DC0298069A431C9A4266
S214003918029340F3E681029C052C7FF44BAF069990
S2140039285446C448042204F007FCB4F8A012ADB20A
S2140039389DF830E09DF82FC0012303FA0EF703FA2E
S2140039480CFC9DF831609DF8332013FA06F69DF8B6
S21400395834000CFA02FC17FA00F09DF837E0BDF8C0
S2140039683A7003FA0EFE9DF83520BB4096400CF5DB
S214003978787700F5787044F6D352C1F2620207F100
S214003988070C0730A2FB0C7CA2FB0070079A800984
S2140039980EFB02F74FEA9C12DFF8A0E2DDF810C033
S2140039A8A4F88E3202294FF08073A5804EF80C706A
S2140039B8C4F89062C4F89802C4F89422A36000F091
S2140039C8E080002120460A46B4F89E32FFF796FCAF
S2140039D885E65046019902220123CDF800C0FFF77C
S2140039E80BFD89F80000DDF800C06BE7924804F08C
S2140039F8A3FB89E75046294602220123CDF800C0DA
S214003A08FFF7FAFC2071DDF800C011E702225046E5
S214003A1829460123CDF800C0FFF7EEFC039A507044
S214003A28DDF800C026E700214FF0F0050A46F0232F
S214003A382046A4F89E52FFF761FC00212046FFF7B7
S214003A4889FC0021D4F8B02290232046FFF756FCC4
S214003A584FF47A7007F038FFE06802787F2A15D1AD
S214003A6894F88CE2002340F2FF7C03F580739BB247
S214003A780EFB03F2125C63458CBF002101217F2AEE
S214003A8814BF002101F001010029EED194F88D320F
S214003A98A4F8A422012B00F02981022B05D194F862
S214003AA88C3233F800C0A4F8A6C200210A46F023D8
S214003AB82046FFF723FC20460021B4F8AE229823C0
S214003AC8FFF71CFCB4F8A42294F88C321F2A7FF463
S214003AD859AEB4F8AA2242B1961D03FB06F1E76870
S214003AE8CD5D05F0010080F00102B4F8A6C2BCF175
S214003AF8D60F14BF4FF0000E4FF0010EBCF1D20FD8
S214003B0814BF75464EF001050DB182F00102002A79
S214003B183FF43EAE9DF83C20B2F1010C3FF438AEBF
S214003B28002014AF0CF1060207EB8202851D07EB96
S214003B38850112F828EC51F82C5C52F82C6C4FEAE8
S214003B480E6747EA162E05F0FF0646EA0E2711F816
S214003B58286C4FEA1E6E41F82C7C01F828EC3706D4
S214003B6812F82CEC47EA152601300CF1FF3C310E12
S214003B784EEA0627604502F8281C42F82C7CD0D36B
S214003B8806E694F88D1201297FF41BAF94F88C2270
S214003B98530884F88C3214E7012A7FF403AE5B10CE
S214003BA80793FFE584F88C32C8E49DF83C000128AA
S214003BB87FF6EEADB4F8AC6243F23017BE4200F2C0
S214003BC8AC80B4F8A65215F0800F3FF4E1AD01388A
S214003BD80021821D0DF1500E0EEB82028E1D0EEB9B
S214003BE8860512F828CC55F82C6C52F82C7C4FEA2F
S214003BF80C6E4EEA172C06F0FF0747EA0C274FEA2A
S214003C081C6E15F828CC45F82C7C05F828EC12F81C
S214003C182C7C4FEA0C6545EA162C0131013847EA38
S214003C280C264FEA1C6E814202F828EC42F82C6CEF
S214003C38CFD3ADE5642301008C2301008C3400202B
S214003C489DF83C0001287FF6A3ADB4F8ACC243F259
S214003C5830118C453FF69CADB4F8A6E242F2CA2273
S214003C68964514BF0025012542F25627BE4514BFC7
S214003C782E4645F00106002E3FF48AAD0138002195
S214003C88821D0DF1500E0EEB82028E1D0EEB860580
S214003C9812F828CC55F82C6C52F82C7C4FEA0C6E8F
S214003CA84EEA172C06F0FF0747EA0C274FEA1C6E69
S214003CB815F828CC45F82C7C05F828EC4FEA0C6754
S214003CC812F82C5C47EA162E0131013845EA0E2612
S214003CD84FEA1E6C814202F828CC42F82C6CCFD3EF
S214003CE856E55446B4F8A012ADB221E694F88C32E4
S214003CF81A5C7E2AA4F8A6227FF4D7AE703A02FB96
S214003D0803FE1EF8002019011602A4F8A862CD1AB0
S214003D182F5C3E43A4F8A862C7E6B4F8AA62E76830
S214003D280F3603FB06F1CD5D032D7FF431AD013868
S214003D380021821D0DF1500E0EEB82028E1D0EEB39
S214003D48860512F828CC55F82C6C52F82C7C4FEACD
S214003D580C6E4EEA172C06F0FF0747EA0C274FEAC8
S214003D681C6E15F828CC45F82C7C05F828EC12F8BB
S214003D782C7C4FEA0C6545EA162E0131013847EAD5
S214003D880E254FEA1E6C814202F828CC42F82C5CBD
S214003D98CFD3FDE4022B7FF448AC40F6AA2340F2CA
S214003DA85552C4F8B032C4F8B4223EE41546BFE50E
S214003DB82DE9F04490F88C52C76805EBC51C0E46F2
S214003DC800210CEB07059A46174690230A46044638
S214003DD8FFF794FAE91952463046FCF757FD0021DA
S214003DE8B4F89E3220460A46BDE8F044FFF786BA85
S214003DF82DE9F04490F88CC2C7680CEB4C160CEB17
S214003E0886050E460021ED199A46174690230A465F
S214003E180446FFF773FAE91952463046FCF736FDB2
S214003E280021B4F89E3220460A46BDE8F044FFF763
S214003E3865BA00BF2DE9F04E044684B000200F4650
S214003E4801931646FCF792FFB4F89C3207F1020974
S214003E58032B054604EB89090DF1080B3DD075D8F0
S214003E68012B3AD0022B0BD00025032B64D0B3F5D8
S214003E78007F61D0012B5FD0284604B0BDE8F08EE5
S214003E8840215A462046D9F804A0FFF7EFF994F8DF
S214003E988C22511E07290BD8DFE801F043390A2F78
S214003EA80A0A0A0DDAF80410DAF80420914208D152
S214003EB8B4F89C32D8E7DAF80000DAF8003098420E
S214003EC8F0D02846FCF752FF86424FD3012007F071
S214003ED8FBFCB4F89C32032BC1D12046394600229D
S214003EE88023FFF789FAD0F1010038BF00200028A8
S214003EF8E7D1B4F89C320546B7E7DAF80010DAF8E6
S214003F080020881A18BF01200028DAD1F1E7BAF88D
S214003F180030BAF80000C01A18BF01200028D0D117
S214003F28E7E79AF800C09AF800E0BCEB0E0018BF66
S214003F3801200028C5D1DCE7002D3AD120463946B5
S214003F480022B4F89E32FFF7D9F995E7042B97D0EC
S214003F58B3F5007F88D12046394600228023FFF734
S214003F684BFAD0F1010038BF0020C0E704EB870009
S214003F78C26894F88C3292F800E012F803C012F87F
S214003F88131003EB430541EA0E40515D40EA0C630B
S214003F9843EA01233148019904F0CEF8B4F89E327A
S214003FA8204639460022FFF7A9F90125B4F89C32C5
S214003FB85BE72046394600228023FFF7DBF90546F3
S214003FC840B1204639460022B4F89E320125FFF754
S214003FD895F951E704EB8700C2680199204804F078
S214003FE8ABF82A46204639463023FFF705FA02463C
S214003FF8E8B9204639462023FFF7FEF9024600B303
S214004008184804F05FF802252046394600220223A5
S214004018FFF7F2F980B92046394600220823FFF751
S214004028EBF900288AD0104804F04CF886E70F48C9
S21400403804F048F80825E7E70D4804F043F8042597
S214004048E9E7204639461023FFF7D6F908B90825C8
S214004058DAE7084804F036F80825D5E7AC23010067
S214004068D82301001424010048240100F823010085
S2140040783824010028240100F8B5B0F89C3204461C
S214004088032B0D4616464DD02DD9042B2FD0B3F54D
S214004098007F47D0D4F89022002E41D03D4B2046D2
S2140040A82946FFF7C7FE0746D8B9651985F80C6292
S2140040B8BEB9B4F8A202A0B1A28892B13D4602E009
S2140040C80135AA420DD9631993F80C120029F7D0C6
S2140040D8012229462046FFF7CFFFA2880135AA42CB
S2140040E8F1D83846F8BD012B1CD0022BD2D1B4F833
S2140040F8A4321F2BCED1002E33D1AA232046314618
S214004108D4F8B022FFF7FAF8B4F8A632D62B05D1C1
S214004118204629463246663BFFF7F0F8D4F8902248
S2140041281D4BBCE70022502320462946FFF7E6F839
S2140041382046294600226023FFF7E0F846B1002211
S214004148204629460123FFF7D9F8D4F89022A5E798
S214004158324620462946D023FFF7D0F8D4F89022D6
S214004168DEE720460021FFF7F5F8D4F8B0228023D2
S21400417820460021FFF7C2F820460021FFF7EAF89C
S2140041880022204629464023FFF7B8F8D4F89022A4
S21400419884E700BF6424010058240100F0B591B0FC
S2140041A8314D40226946314803F012F94FF6FF7741
S2140041B800214FF0C040AF60FFF7A0F9AB686E462D
S2140041C8BB422C683FD068462949FCF769F9064681
S2140041D840BBB5F8A20200283CD0314628463246F5
S2140041E8A5F8A262FFF748FFA8884FF0010101284A
S2140041F8A5F8A21216DD0223834285F80D6200F0A8
S21400420801020FDA22B10323834285F80E6209DA27
S2140042185A1CE918531CAA18834281F80C6282F8C3
S2140042280C62F5DB4FF0C040FEF7FEFF40F6FF726B
S2140042380346C6F2000201204FF0C04105F03AF9E5
S214004248204611B0F0BD0B4801212246230503F095
S21400425873FFE7E7E8682A68014683185A1E0220B3
S2140042682B4605F027F9DDE78C3400206C24010086
S214004278EC1E0100742401002DE9F04E90F88C72B3
S2140042880646781E0D4617469A46072805D8DFE8DC
S21400429800F0443A0433040404070220BDE8F08E14
S2140042A8D5E900012AEA010322EA000252EA0301DC
S2140042B814BF00230123002BEFD0FCF74FFFB6F8FE
S2140042C89C328346032B36D02FD8012B33D0022BB3
S2140042D800F0B4804FF000094C4696F88C22531E26
S2140042E8072B3BD8DFE813F0A4009E003A0099009D
S2140042F83A003A003A003600296811408A4214BF4C
S21400430800230123D7E72B881FFA82FC0CEA030058
S214004318844514BF00230123CDE72A78FBB21A4050
S214004328934214BF00230123C5E7042B00F08680C0
S214004338B3F5007FCED100210A4650233046FEF75B
S214004348DDFF0021894630460A464023FEF7D6FFA1
S2140043584C46C2E73A465346C5E90023BBF1000F70
S21400436858D1B9F1000F4AD1624FD7F8BC42A11C08
S21400437806EB810253689D4224D9B08801388442EE
S21400438820D204325368E143091801349D4201F0F3
S214004398010117D90432844214D269B15368013432
S2140043A89D420FD90432844206D30BE04B68013491
S2140043B89D4207D9844205D25368111D01340A1D4F
S2140043C89D42F3D8B4F1000C18BF4FF0010C9D4283
S2140043D82CBF00230CF001037BB106EB84030C33DF
S2140043E8013C53F8040D0CBF0022012285422CBF65
S2140043F8002202F00102002AF2D1C7F8BC4264206B
S21400440807F062FAD6F894223B4B30462146BDE8C0
S214004418F04E0FE5FCF7A0FEA3E72F60BBF1000FF8
S2140044289FD0F7E7BFB22F80BBF1000F99D0F1E716
S214004438FFB22F70BBF1000F93D0EBE72D4BD3F8EC
S214004448BC42A01C06EB80014A68954227D9B6F8FC
S214004458049009F1FF3C644521D204314A68E043E0
S21400446800EB0C0E013495420EF0010017D904310A
S214004478644514D268B14A68013495420FD90431AC
S214004488644506D30BE042680134954207D9644573
S21400449805D24A68081D0134011D9542F3D8954295
S2140044A82CBF00220122002C0CBF002202F00102C1
S2140044B87AB106EB84020C32013C52F8040D0CBFAC
S2140044C80021012185422CBF002101F001010029AD
S2140044D8F2D130462146C3F8BC42FEF73BFF3046D1
S2140044E82146D6F8B022A023FEF708FF4FF00109B0
S2140044F8F3E600BF8C340020AC2401002DE9F04E12
S21400450890F88C7284B0C7F1000922EA090BBBF157
S214004518000F04460D469A4602EA09097AD04FF07B
S214004528000602962CDD0BF1FF3602AF06F00103FB
S21400453899F80020394601260193FEF7A3FFB345F4
S214004548019B1ADD4BB109F101063278204639463F
S2140045580226FEF797FFB3450FDD16F8092020461A
S21400456801363946FEF78EFF16F809202046013632
S2140045783946FEF787FFB345EFDC94F88C725E4643
S214004588BAF1000018BF0120BE42ACBF002000F000
S2140045980100B8B10DF1080B5946204615F8012B55
S2140045A8FEF770FFBAF1010A94F88C7206F101065C
S2140045B80CBF00210121B742D4BF002101F0010140
S2140045C80029E9D1BAF1000F18D1BE4216DA0DF16A
S2140045D8080B19F806202046594609EB0607FEF789
S2140045E851FF013605E03A7820465946FEF74AFF5D
S2140045F8013694F88C2201379642F4DBDDE9022373
S21400460820464946FFF738FE034600285CD194F852
S2140046188C72B144BA4521D34FF0000B02AECDF8E8
S21400462808B05FB15F462046314615F8012BFEF705
S21400463829FF94F88CC20137BC45F4DCDDE9022377
S21400464820464946FFF718FE034600283CD194F852
S2140046588C72C7EB0A0A5745B944E0D9BAF1000F7D
S21400466836D00026BB1B18BF01230296002B31D07C
S2140046780DF1080BAA5D20465946FEF703FF94F88D
S2140046888C720136B742D4BF00230123B2450CBF53
S214004698002303F00103002BECD1BE420DDA06EB33
S2140046A8090502AF204615F8012B3946FEF7EAFE43
S2140046B894F88C020136B042F4DCDDE90223204689
S2140046C84946FFF7D9FD0346184604B0BDE8F08E04
S2140046D85346F9E71E46E0E783682DE9F047B3F14D
S2140046E8807F044604D05048BDE8F04703F0EABC93
S2140046F890F88C2290F88D02D200C300D4F8B81235
S2140047084A4803F019FD2168B1F5801F5CD3090DEE
S2140047184748A28803F010FD464803F00DFDB4F89C
S2140047289C1203295CD064D801296FD0022971D065
S214004738414803F001FDB4F8A4124048B4F8A62294
S21400474803F0FAFCB4F8A6127E2967D0D4F89422AF
S2140047583B48D4F8901203F0EFFCB4F88E22012AF6
S21400476804D93848D4F8981203F0E6FC364803F023
S214004778A9FCA388002B37D046F26769DFF8F0A0BB
S2140047882C4FC6F266692646002510E0631993F892
S2140047980CC2F168BCF1000F14BF52463A462B48CB
S2140047A803F0CAFCA18801350436A9421CDD89FB42
S2140047B80532E817C0EB620E0EEB8E0C6545E5D1A8
S2140047C8234803F0B9FCE1E7890A2248A28803F0E7
S2140047D8B3FC184803F0B0FCB4F89C120329A2D125
S2140047E81D4803F0A9FCA6E70A20BDE8F04703F039
S2140047F85FBC042906D0B1F5007F99D1174803F0AD
S2140048089BFC98E7164803F097FC94E7154803F0D6
S21400481893FC90E7144803F08FFC8CE71348B4F831
S214004828A81203F089FC91E7B4240100D4240100FF
S2140048380825010028250100802501009025010093
S214004848D425010008260100402601006026010044
S214004858D4380100E8240100402501002C25010079
S214004868702501005025010060250100CC250100B7
S2140048785C26010083682DE9F04EB3F1807F04467C
S2140048880D46174640F06281C90F9542C8BF41F0F1
S2140048980101002940F06281954224D805F5027688
S2140048A8831913F8042F781B00F0010002B10121C8
S2140048B86A1C0133BA4213D828B1187858B901329D
S2140048C80133BA420CD81878013200B10131587851
S2140048D801330028F3D0013201310133BA42F2D94C
S2140048E8002940F04381DFF8F8A2DAF80010002922
S2140048F840F04581BD4294BF05F502764FF00009A9
S21400490800F2A980A61916F8043FC5EB070B0BF0B2
S214004918010B4FF0000963BBB4F89C32032B07D099
S21400492840F26081042B00F06381B3F5007F11D15B
S2140049382046294600225023FEF7E0FC204629465A
S21400494800222023FEF7DAFC204629460022D02340
S214004958FEF7D4FC20462946D4F890229B4BFFF756
S21400496869FA002840F00881DAF80020002A40F0AA
S2140049785F8101350136BD426DD8BBF1000F31D0DD
S214004988307858BBB4F89C32032B07D040F2FB8033
S214004998042B00F0FE80B3F5007F11D1204629468F
S2140049A800225023FEF7AAFC204629460022202390
S2140049B8FEF7A4FC204629460022D023FEF79EFCDC
S2140049C820462946D4F89022804BFFF733FA002871
S2140049D84AD1DAF80010002940F026810135013660
S2140049E8BD4238D832789AB9B4F89C32032B4BD0EB
S2140049F845D8012B48D0022B79D020462946D4F832
S214004A089022724BFFF716FA002830D04FF00109B3
S214004A187178013501360029E0D1B4F89C32032BB1
S214004A2800F0818043D9042B45D0B3F5007F7AD0B7
S214004A3820462946D4F89022644BFFF7FBF998B92C
S214004A48DAF80030002BC9D02E20013503F030FBF1
S214004A580136BD42C6D9DAF8003013B15C4803F017
S214004A6831FB4846BDE8F08E4FF00109B6E7DAF8A4
S214004A7800000028CCD02E2003F01AFBC8E7042B31
S214004A8835D0B3F5007FB8D12046294600225023FA
S214004A98FEF734FC2046294600222023FEF72EFC8B
S214004AA8204629460022D023FEF728FCA5E7012B3E
S214004AB839D0022BBCD120462946FEF74BFCD4F849
S214004AC8B022802320462946FEF718FC20462946B1
S214004AD8FEF740FC2046294600223023FEF70EFC4F
S214004AE84AF22010C0F2070006F0EEFEA0E72046C5
S214004AF82946FEF72FFCD4F8B02280232046294604
S214004B08FEF7FCFB20462946FEF724FC20462946ED
S214004B1800223023FEF7F2FB4AF22010C0F207000C
S214004B2806F0D2FE69E72046294600225023FEF703
S214004B38E5FB2046294600222023FEF7DFFB204619
S214004B4829460022D023FEF7D9FB71E721484FF00B
S214004B58010903F0B7FA4846BDE8F08E1E484FF044
S214004B68010903F0AFFA4846BDE8F08E1B4803F08B
S214004B78E3FADFF86CA0C5E64FF00109F9E60A206B
S214004B8803F096FAB6E6012B3FF408AF022B7FF443
S214004B9817AF20462946FEF7DDFBD4F8B02280235F
S214004BA820462946FEF7AAFB20462946FEF7D2FBF2
S214004BB82046294600223023FEF7A0FB4AF22010A2
S214004BC8C0F2070006F080FEFAE600BFEC260100F9
S214004BD8F4260100702601009C260100B426010078
S214004BE854000020012B3FF4A3AE022B7FF4B2AE94
S214004BF820462946FEF7AEFBD4F8B022802320468E
S214004C082946FEF77BFB20462946FEF7A3FB2046EF
S214004C18294600223023FEF771FB4AF22010C0F224
S214004C28070006F051FE95E62E3003F041FAD5E669
S214004C382E3003F03DFA9CE6044B1A68108810F0F4
S214004C48200FFBD09188C8B2704700BF4C370020B1
S214004C580A2810B5044608D0064B1A68108810F0C3
S214004C68800FFBD0A4B2948010BD0D20FFF7F0FF94
S214004C78F2E700BF4C37002010B503783BB1044676
S214004C8858B2FFF7E5FF14F8013F002BF8D110BD26
S214004C9802490B681888C0F3401070474C3700204C
S214004CA808B5114A0220904741468B6800EB800CF5
S214004CB80CEB8C009A0048F21F5CB0FBF2F3C5F2CE
S214004CC8EB1CACFB03016420490901FB10321301FD
S214004CD83233ACFB0302C2F3431C044A4CEA01100D
S214004CE8136881B2198108BD6D0B00204C3700206F
S214004CF843F64002C4F20202106838B540F40021B8
S214004D08134C44F600431160C4F200031148032113
S214004D1823600BF045FB054608B1284638BD0E480B
S214004D2803210BF03DFB05460028F6D120684FF01E
S214004D380C0EA0F80CE005828582FFF7B1FF236809
S214004D4828469A8991B241F4005CA3F80CC038BD95
S214004D584C370020580000206000002030B543463D
S214004D681C6885B0E2681C481C4903F0E5F9A2688F
S214004D7819481B4903F0E0F922691748194903F056
S214004D88DBF900221448184903F0D6F9626912487C
S214004D98164903F0D1F901ADA2690F48144903F08A
S214004DA8CBF914492846FBF707FB284602F084FB94
S214004DB8114A2946002818BF0246104803F0BCF9D5
S214004DC8211D0F4803F0B8F921680E4803F0B4F91E
S214004DD8002005B030BD00BFFC2601000C270100EE
S214004DE818270100202701002C270100382701007A
S214004DF844270100741D01004C27010058270100B4
S214004E08642701007827010008B5034608461146BE
S214004E18984708BD012A70B5144619DD586810224F
S214004E2800211D1D06F060FD064601460B4803F0EE
S214004E3883F9611E2A463046FFF7E6FF0446014618
S214004E48003C18BF0124064803F076F9204670BDDA
S214004E58012402F06BFE204670BD00BFB427010097
S214004E68DC270100704700BF021E18BF01228028F9
S214004E780CBF002202F0010210B552B91C6E06489B
S214004E88214603F059F90F2004F084FF43461868BA
S214004E98A047012010BD00BF9C2801002DE9F04E58
S214004EA8B0F1000C18BF4FF0010C84B080280CBF7E
S214004EB800200CF001000C461546009300287ED111
S214004EC893F82230009A042B166800F08480002697
S214004ED80196022C77DDA868FBF768FB0326A4F189
S214004EE8030A471CB4420AF0010A1ADDBAF1000F99
S214004EF807D0E868FBF75AFB0426C1194F1CB442D2
S214004F080FDD55F82600FBF751FB0136C31955F897
S214004F1826005F1CFBF74AFB0136C7190137B44267
S214004F28EFDC384603F022FB14F0010F4FF00209BD
S214004F384FF0000A4FF0200B064620D1A968FBF771
S214004F483BFA4FF00309A868FBF730FB4C4527DD12
S214004F5806F800B000F1010A043510E006F80AB0B9
S214004F68B968FBF729FAB868FBF720FB00EB050CD5
S214004F7809F1010906F80CB00CF1010A3D1DA968F3
S214004F8806EB0A00FBF718FAA868FBF70FFB824443
S214004F982F1D09F101090AF1010570194C45DDDCE0
S214004FA80098046E1248214603F0C6F80F2004F055
S214004FB8F1FE42461068019933460E4AA047012082
S214004FC804B0BDE8F08E0C4802F076FA094E0028C8
S214004FD818BF0646E4E70121304603AA02AB04F0F0
S214004FE8A3FB029900293FF472AF019671E700BF50
S214004FF8E4280100C0320100D828010084B02DE959
S214005008F04E82B00DF1280C8CE80F009DF83D108C
S2140050189DF83CB00D9B064608460193109FDDF8A8
S21400502844A00E9C0B9DDDF8309004F0F9FABBF115
S214005038000F21D1B44201464BD0304803F07CF82B
S2140050484C4506D049462046019A4FF4803304F072
S214005058FDFB019B2A48E2183A6003F033F828481B
S21400506803F030F8BAF1000F29D0072004F092FEBA
S214005078AC4226D3002008E0BBF1010F0AD0214835
S214005088594603F059F86FF0020002B0BDE8F04E3A
S21400509804B0704701461C4803F04EF820464A46BE
S2140050A84FF4000101AB06F06FFBB0B90199601828
S2140050B83860134803F006F8BAF1000FD5D1AC42B1
S2140050C8D8D23A68B24288BF6FF00100DDD8002017
S2140050D8DBE70E4803F030F8BBE70D4802F0F2FFB6
S2140050E8BAF1000F02D14FF0FF30CEE76FF005009F
S2140050F804F050FE4FF0FF30C7E700BF402901001C
S21400510854290100C8290100582901003029010046
S214005118742901002DE9F04EAF4C002182B01746E5
S21400512882468C2220469946FBF742FBAB4804F0A1
S214005138A1FB012FC4F8840040F3CB80D9F8040003
S2140051480021102206F0D0FB0546012004F022FEBE
S214005158284604F095FA4FF0000B0646C4F854B0FB
S214005168C4F850B0054604F0C9FA012818D0DAF891
S21400517800109B4802F0E0FF6FF06B0004F00AFE98
S2140051885D46626D944E002A54D0284604F0B6FA5E
S2140051980128834653D0934802F094FF012095E0F7
S2140051A89148314602F0C8FF336841F65612190690
S2140051B841EA136103F47F4041EA002C03F47F0BB5
S2140051C84CEA1B20C2F2057283499042D1F884B09B
S2140051D840F0AB80022004F0DDFD304604F066FBAC
S2140051E8002800F0F080032004F0D4FD304604F0D8
S2140051F8A5FBBBF1000F0BD07C4802F063FF3046DE
S21400520804F076FB002800F00F81794802F05AFF78
S214005218042004F0BFFD717F02295DD0754802F0B6
S2140052288BFF6FF0030004F0B5FD0025626D6A4E33
S214005238002AAAD1704802F045FF012046E0A97F5F
S21400524886F85D10E87F86F85C00287F86F85E00A2
S214005258EA682B694FEA026A4AEA126E02F47F4C41
S2140052684EEA0C2A02F47F024FEA036C4CEA136EED
S2140052784AEA122203F47F4A4EEA0A2C03F47F0E07
S2140052884CEA1E234032B365736C5219F264002B45
S2140052986AD0B369022914BF002201224FEA036AC2
S2140052A84AEA136E03F47F4A4EEA0A2C03F47F0E8A
S2140052B84CEA1E23042914BF114642F00101336646
S2140052C8F9B90120C4F88800A564002002B0BDE83A
S2140052D8F08E4A4B1D6838E7052004F05BFDB37F67
S2140052E8022B5BD0042B29D0012B42D0DAF8001011
S2140052F8434802F021FF6FF0040004F04BFD002540
S2140053083FE70528DDD13846324606F164074946A8
S214005318683602230097019604F052FC0028D0D085
S214005328384802F0CFFE5846D0E7374802F0CAFEA3
S2140053384FF0FF3004F02EFD002577E7334A30465D
S2140053480021131D04F0F0F93148616D02F0F4FEF7
S214005358314640222F48FBF7E7FA2660062001264A
S214005368666404F017FD0CE72B4802F0ABFE5846BF
S214005378ACE7F16806F140020B0643EA116301F454
S2140053887F4043EA002E01F47F0C4EEA1C231946A0
S21400539822482265636502F0CFFED9E7F16806F178
S2140053A840020B0643EA116301F47F4043EA002EED
S2140053B801F47F0C4EEA1C231946194822656365DA
S2140053C802F0BAFEC4E7174802F07CFE6FF0010050
S2140053D804F0E0FC002529E750370020EC290100FE
S2140053E8042B0100482B0100F4290100542A01006F
S2140053F854290100802A0100282B0100680000209B
S214005408E02A0100902B0100282A0100A03700207E
S214005418B42A0100543700206C2B0100C82A01006A
S214005428A02A01003C2A0100044802F085FE6FF01D
S214005438020004F0AFFC0025F8E600BF702A010061
S2140054482DE9F044044686B058680D46174640498C
S21400545806221E4602F076FB331D002832D0D0F80E
S2140054680CA0BAF1010F6BD03A4DD5F888309A45A2
S21400547825DD4AEA030095F85E20374BBAF1200F7F
S214005488C5F8880053F8224024D007DCBAF1020F8A
S2140054982CD0BAF1100F47D0002417E0BAF1400F0D
S2140054A836D0BAF1800FF7D1FBF758FEFFF7DAFCD3
S2140054B85046394632462B46A047002406E0274881
S2140054C802F03AFE204602F031FB0124204606B0E0
S2140054D8BDE8F0845046394632462B46A047044677
S2140054E80028F3D01E4802F027FEEFE705F1480C27
S2140054F8EE46583595E803008EE8030005AC9CE8B0
S2140055080F00029400240394FFF778FD0446DDE7B5
S2140055185046394632462B46A04704460028D5D082
S214005528104802F009FED1E75046394632462B4667
S214005538A04704460028C9D00B4802F0FDFDC5E781
S214005548204629467A1EFFF7E5FD0446BEE700BF5B
S2140055586C0000205037002050280100B82B0100AE
S214005568082C0100282C0100E42B01002DE9F04E40
S214005578144690B00022012C0F9207468A461D4614
S21400558812DD58680EA9102206F0AEF90E9B93F9A4
S2140055980030181E18BF01203A2B0CBF002000F060
S2140055A8010008B1232B67D13846514622462B46C0
S2140055B8FFF7B0FD18B1012010B0BDE8F08EFBF77C
S2140055C8CDFDDFF864916A4609F15803834693E8EF
S2140055D8030082E8030009F1480C0FAE9CE80F00B0
S2140055E8029601260396FFF709FD00284BDB99F87B
S2140055F85D004D4B01281ED00820059304F0CAFB19
S214005608059B4A4A93F85E0052F82060002E4ED05A
S2140056180593FFF727FC059B21462A460020B0473E
S2140056286FF0080004F0B6FB3846514622462B4673
S2140056380AF072FEBFE7BBF1000F01D0FBF78CFD46
S2140056483B4801F039FF28B13A49FAF729FF0646E0
S21400565800284ED0D9F86020601E130643EA126E62
S21400566802F47F414EEA012302F47F0243EA122C39
S214005678291DE04700209FE73846514622462B461C
S214005688FFF7DEFE98E7B0F1FF3F46D010F1020FB5
S21400569823D010F1030FAAD1BBF1000F01D0FBF7FE
S2140056A85BFD6FF0060004F075FB012084E7BBF194
S2140056B8000F04D0FBF750FD059991F85E0003F043
S2140056C883FF99F85E2001461B4802F035FD6FF00F
S2140056D8070004F05FFB01206EE7D9F84410A9B173
S2140056E899F822E0BEF1040F81D1144802F0EAFCD2
S2140056F87DE706ACD9F854201149204607F0D0F9C2
S2140057082146104802F0F8F8304655E70E4802F0F1
S214005718D9FC6FF0700004F03DFB3846514622462F
S2140057282B460AF0F9FD62E75037002050280100A2
S214005738CC2C01006C1D0100D82C0100482C01005F
S2140057482020010024200100842C01002DE9F04EC1
S21400575884B001928A46019C0C999B4600224FF021
S214005768FF3350450A602360CBF8003054D83A4BD4
S2140057784FF6FF7C9C6864454ED0DD6819689E88A5
S21400578805EB0109711E89B2029509F1FF390391EB
S214005798EEB10FB24FF0010C974213BF1969494694
S2140057A86446644618BF013981420CF1010C0AD3DD
S2140057B8DD68AA4507D3A84204BF019D2A60514563
S2140057C808BFCBF8002001320433B442E4DB019969
S2140057D80B68002B0FDBDBF80020002A1EDB934249
S2140057E825DC0C9C0020216801318A18D31A236016
S2140057F804B0BDE8F08E029DA84234BF4FF0000CFE
S2140058084FF0010C48452CBF00200CF00100C0B931
S214005818DBF80030002B0FDA0020E9E7CA4515D977
S214005828039802B2CBF800200B689342D9DD0B48E8
S21400583802F048FC0120DBE7094802F043FC01209F
S214005848D6E7084802F03EFC0120D1E7064802F0F9
S21400585839FC0120CCE700BF8C3400207C2D0100E9
S214005868D82D0100A82D0100502D01002DE9F04487
S21400587886B004AB03AD04460846114605AA009553
S214005888FFF764FFD0F1010338BF002305460398ED
S21400589800280CBF002203F0010212B31D4F4FF67A
S2140058A8FF73B968994221D0059F002F1EDBDDF8EB
S2140058B810A057451ADC3E460025314622461548B4
S2140058C8FEF7DAFB002818BF01252E2002F0F0FBB1
S2140058D8049A0136B242F0DA0AF1010AC7EB0A075F
S2140058E806E093B9284606B0BDE8F08400252F46A2
S2140058F8094802F0E7FB094809493A46002C08BF60
S2140059080146084802F018FCECE7074802F0DAFB04
S2140059180125E7E78C340020F4260100202E01003C
S214005928C0320100242E01003C2E0100F8B5134BAE
S21400593807469E88B6B1D0F800C019460022741EE5
S214005948944215D0086901380132604507D3CD68FE
S214005958654504D8604588BF38600020F8BD043126
S214005968B242EDDB3968064802F0E6FB0120F8BDD6
S214005978DD68186828180138E6E700BF8C34002070
S214005988742E01002DE9F04482B001AC15460E468F
S214005998102221469A46074605F0A6FF019B286076
S2140059A8BB4204D14FF0FF3002B0BDE8F08493F953
S2140059B80030002BF6D11EB196F900002B2812D025
S2140059C8002710222146304605F08EFF019A03462E
S2140059D8B242CAF80000E5D092F90020002AE1D1C8
S2140059E827B90120E0E701360127EAE7296850468B
S2140059F84A1ED118CAF80010FFF798FF0028D1DC15
S214005A080120D1E72DE9F04E0C4684B03A21154620
S214005A189A460746FAF790FD064610B904B0BDE860
S214005A28F08E00230DF10C0903700A223846494609
S214005A3805F05AFF039BBB4202D14FF0FF30EDE75B
S214005A4893F90070003F18BF01270028D8BF47F019
S214005A580107002FF1D10128EFD1DFF894B04FF6F7
S214005A68FF70DBF808208242E7D0731C18462D2109
S214005A780193FAF761FD019B064608B106F8017B1B
S214005A880A2249461846019305F02EFF039A019903
S214005A9807469142D1D092F900000028CDD1BBF834
S214005AA804C06745C9DA3EB93B462F60C4F800B063
S214005AB8CAF800300120B1E70A224946304605F008
S214005AC813FF039AB242B8D092F900E00346BEF13B
S214005AD8000218BF0122B842B8BF42F00102002AED
S214005AE8ABD1BBF804108842DFDB4FF0FF3095E7F8
S214005AF88C3400202DE9F044022A88B016461D464C
S214005B08074642DD58686F49FAF7CAFC044630B1C2
